:100000009CC00000B6C00000B4C00000B2C0000038
:10001000B0C00000AEC00000ACC00000AAC000002C
:10002000A8C0000007C10000A4C00000A2C00000DA
:10003000A0C000009EC000009CC000009AC000004C
:1000400098C0000096C0000094C0000092C000005C
:1000500090C000008EC000008CC000008AC000006C
:1000600088C000007FC5000084C0000008C40000F4
:1000700080C000007EC000007CC000007AC000008C
:100080002FC1000076C0000074C0000072C00000E4
:1000900070C000006EC000006CC000006AC00000AC
:1000A00068C0000066C0000064C0000007634236FC
:1000B000B79BD8A71A39685618AEBAAB558C1D3CF9
:1000C000B7CC5763BD6DEDFD753EF6177231BF00BD
:1000D0000000803F08000000BE922449123EABAAF7
:1000E000AA2ABECDCCCC4C3E00000080BEABAAAA52
:1000F000AA3E00000000BF000000803F000000009A
:1001000000084178D3BB4387D1133D190E3CC3BDD2
:100110004282AD2B3E68EC8276BED98FE1A93E4C7F
:1001200080EFFFBE01C4FF7F3F000000000063645A
:10013000696E6F70737578585B0011241FBECFEF26
:10014000DAE0DEBFCDBF12E0A0E0B1E0E2E4F1E230
:1001500002C005900D92AE3DB107D9F727E0AEED94
:10016000B2E001C01D92AB35B207E1F7B5D60C94F1
:100170009F1046CF80E091E0CCD32FEF81EE94E04A
:10018000215080409040E1F700C000000895ADE2AA
:10019000B0E0ECECF0E0B7C68DE2E6EFF1E0DE01B6
:1001A000119601900D928A95E1F7CE010196B1D397
:1001B00081E090E09093EC028093EB02AD96E2E058
:1001C000BEC6259824980895E8E6F0E08081816015
:1001D0008083EBE6F0E080818061808380818062B3
:1001E00080830895E0E8F0E0808183628083E1E825
:1001F000F0E080818B61808383E690E090938900BA
:100200008093880010928B0010928A000895E1E993
:10021000F0E080818B60808389E698E1909399007B
:1002200080939800E1E7F0E0808182608083109203
:10023000900008951F920F920FB60F9211242F93E2
:100240003F934F935F936F937F938F939F93EF931E
:10025000FF9343B144FB222720F930E043B145FB33
:10026000882780F990E04091E202582F6091E302E4
:10027000421749F0E091E502F091E6023196F093E1
:10028000E602E093E502561749F0E091E502F091AD
:10029000E6023197F093E602E093E502062E000CA9
:1002A000770B2617370749F0042E000C550B8417DF
:1002B000950719F041E04093E4022093E302809314
:1002C000E202FF91EF919F918F917F916F915F91EA
:1002D0004F913F912F910F900FBE0F901F90189547
:1002E0001F920F920FB60F9211244F925F926F924E
:1002F0007F928F929F92AF92BF92CF92DF92EF92B6
:10030000FF920F931F932F933F934F935F936F939E
:100310007F938F939F93AF93BF93EF93FF93CF936D
:10032000DF9300D000D0CDB7DEB780910F0390915E
:100330001003019709F00CC18090DE029090DF025B
:10034000A090E002B090E1028091E7029091E80273
:10035000A091E902B091EA02C090ED02D090EE02C5
:10036000E090EF02F090F0022091E7023091E80275
:100370004091E9025091EA0229833A834B835C83DE
:10038000B401681B790B77FF03C071956195710902
:10039000072E000C880B990B75D62091F201309135
:1003A000F3014091F4015091F501F8D62B013C0185
:1003B000B60149815A81641B750B77FF03C07195A3
:1003C00061957109072E000C880B990B5BD6209163
:1003D000EE013091EF014091F0015091F101DED634
:1003E0009B01AC01C301B201B5D51ED670938B0041
:1003F00060938A0080918A0090918B00039730F47B
:1004000083E090E090938B0080938A0080918A0033
:1004100090918B008C34910530F08BE490E09093B8
:100420008B0080938A008091E5029091E602092E6C
:10043000000CAA0BBB0B88159905AA05BB0514F483
:10044000729821C088169906AA06BB0614F4729AFF
:100450001AC088159905AA05BB05A9F4269810921B
:10046000100310920F0310928B0010928A0080915B
:10047000E7029091E802A091E902B091EA0290931C
:100480001C0380931B038091E7029091E802A091E6
:10049000E902B091EA028093ED029093EE02A093FC
:1004A000EF02B093F0028091E5029091E602092EEE
:1004B000000CAA0BBB0B8093E7029093E802A09379
:1004C000E902B093EA028091E7029091E802A091DC
:1004D000E902B091EA022091E1022F932091E0021B
:1004E0002F932091DF022F932091DE022F939F9371
:1004F0008F9383E292E09F938F938DE193E09F939C
:100500008F930E94FE0A8DE193E003D21F928AE846
:100510008F9383E392E09F938F930BEF12E01F93EF
:100520000F930E941E0B80918A0090918B009F93E5
:100530008F9386E392E09F938F931F930F930E9474
:10054000FE0AC801E6D10FB6F894DEBF0FBECDBFDC
:1005500080911703909118038130910511F5109245
:10056000E7021092E8021092E9021092EA029093D8
:10057000100380930F03109218031092170342E3A5
:1005800052E060E070E04093DE025093DF0260933F
:10059000E0027093E1027298269A9093160380937A
:1005A000150380911503909116038130910581F513
:1005B0004091E7025091E8026091E9027091EA02ED
:1005C000423352406105710519F5FFEF29E638E124
:1005D000F15020403040E1F700C0000010921603B7
:1005E000109215039093320380933103909310037C
:1005F00080930F038AE699EFAFEFBFEF8093DE029F
:100600009093DF02A093E002B093E102729A269ADF
:1006100080913103909132038130910561F54091D1
:10062000E7025091E8026091E9027091EA024A36CD
:10063000594F6F4F7F4FF9F4FFEF29E638E1F15042
:1006400020403040E1F700C00000109232031092C9
:1006500031039093100380930F0389E899EFAFEF74
:10066000BFEF8093DE029093DF02A093E002B0938D
:10067000E1027298269A0F900F900F900F90DF91E1
:10068000CF91FF91EF91BF91AF919F918F917F910A
:100690006F915F914F913F912F911F910F91FF901B
:1006A000EF90DF90CF90BF90AF909F908F907F9012
:1006B0006F905F904F900F900FBE0F901F90189506
:1006C0004F925F926F927F928F929F92AF92BF9262
:1006D000CF92DF92EF92FF921F93CF93DF93EC01C3
:1006E000C12CD12C76018091490790914A07A091A5
:1006F0004B07B0914C07C816D906EA06FB0608F06E
:1007000049C08091490790914A07A0914B07B09149
:100710004C070197A109B109BC01CD016C197D09F4
:100720008E099F09ADD49B01AC0160E070E080E2CE
:1007300091E497D52B013C0119916091DE027091F3
:10074000DF028091E0029091E1029CD44B015C01B8
:10075000612F70E060537109072E000C880B990B14
:1007600091D49B01AC01C301B20118D59B01AC012E
:10077000C501B401F0D353D46093DE027093DF025D
:100780008093E0029093E1028FEFC81AD80AE80A3A
:10079000F80AA9CF6091DE027091DF028091E00239
:1007A0009091E102DF91CF911F91FF90EF90DF9048
:1007B000CF90BF90AF909F908F907F906F905F9001
:1007C0004F90089580911B0390911C03092E000CFB
:1007D000AA0BBB0B4091DE025091DF026091E00258
:1007E0007091E102481759076A077B0714F0729865
:1007F00001C0729A269A81E090E090931003809352
:100800000F030895FB019183808314821582138264
:1008100012820895E7E3F7E083E393E09183808316
:100820001482158213821282E1E5F7E087E395E0F6
:1008300091838083148215821382128280E190E07A
:100840009093CD008093CC00EAECF0E0808186604C
:100850008083E9ECF0E0808180688083808180641F
:100860008083808180618083808188608083089517
:100870009091C80095FFFCCF8093CE0008951F9201
:100880000F920FB60F9211242F933F934F935F93C4
:100890006F937F938F939F93AF93BF93EF93FF9348
:1008A00088B1805888B98091390790913A07892B8F
:1008B000F9F08091C80085FF1BC0E0913707F091E7
:1008C000380780913B0791E0980F90933B07E80F22
:1008D000F11D8081CDDF8091390790913A07019712
:1008E00090933A078093390780913B0780933B07A9
:1008F000FF91EF91BF91AF919F918F917F916F91F8
:100900005F914F913F912F910F900FBE0F901F90CD
:100910001895F8942091390730913A072E5F3F4F90
:100920002130324008F042C0FC0180818823E1F090
:10093000A0913707B091380780913C0791E0980F5C
:1009400090933C07A80FB11D81918C93809139073A
:1009500090913A07019690933A07809339078091D6
:100960003C0780933C07E1CF8091C80085FF1BC006
:10097000E0913707F091380780913B0791E0980F9D
:1009800090933B07E80FF11D808172DF809139075A
:1009900090913A07019790933A0780933907809195
:1009A0003B0780933B07789480E008958FEF08958C
:1009B0000F931F93CF93DF9320E030E04AE754E496
:1009C0006091F2017091F3018091F4019091F50131
:1009D000E5D325D3609333057093340580933505B3
:1009E0009093360583E395E09F938F930EE312E097
:1009F0001F930F93CBEFD2E0DF93CF931FD680915D
:100A000036058F93809135058F93809134058F93B0
:100A1000809133058F9382E492E09F938F93DF93CD
:100A2000CF93ECD5CE0175DF20E030E04AE754E407
:100A30006091EE017091EF018091F0019091F101D0
:100A4000ADD3EDD260935707709358078093590741
:100A500090935A0787E597E09F938F931F930F9387
:100A6000DF93CF93EBD580915A078F9380915907ED
:100A70008F93809158078F93809157078F9383E5C9
:100A800092E09F938F93DF93CF93B8D5CE0141DF50
:100A90008EED92E09F938F931F930F93DF93CF93ED
:100AA000CDD58DB79EB782960FB6F8949EBF0FBE78
:100AB0008DBF8091E1028F938091E0028F938091AE
:100AC000DF028F938091DE028F9384E692E09F9302
:100AD0008F93DF93CF9392D5CE011BDF87EE92E009
:100AE0009F938F931F930F93DF93CF93A7D58091FD
:100AF000E7029091E802A091E902B091EA02BF9367
:100B0000AF939F938F9380E792E09F938F93DF93B0
:100B1000CF9374D5CE01FDDE1F928AE88F9383E3D5
:100B200092E09F938F93DF93CF9388D580918A0033
:100B300090918B009F938F938CE792E09F938F937C
:100B4000DF93CF935BD58DB79EB782960FB6F8949F
:100B50009EBF0FBE8DBFCE01DCDEDF91CF911F9116
:100B60000F9108951F920F920FB60F921124EF92DA
:100B7000FF920F931F932F933F934F935F936F9326
:100B80007F938F939F93AF93BF93EF93FF93CF93F5
:100B9000DF93CDB7DEB7A697DEBFCDBFE09151079B
:100BA000F09152078091560791E0980F9093560765
:100BB000E80FF11D8091CE008083809156078093CD
:100BC00056078091530790915407019690935407CC
:100BD000809353078091EB029091EC02019709F00A
:100BE000DBC08091490790914A07A0914B07B091D3
:100BF0004C07E0915107F09152072091550731E0E1
:100C0000320F30935507E20FF11D208101EF12E002
:100C1000FC01EF50FD4F20838091490790914A07D6
:100C2000A0914B07B0914C07FC01EF50FD4F808124
:100C30008D30A1F08091490790914A07A0914B0710
:100C4000B0914C070196A11DB11D80934907909367
:100C50004A07A0934B07B0934C071DC186E2E8EB0F
:100C6000F2E0DE01119601900D928A95E1F7CE0136
:100C700001964FDE81E497E09F938F9383E3E82E04
:100C800082E0F82EFF92EF921F930F93D7D48091BA
:100C900042078F93809141078F9389E392E09F935E
:100CA0008F931F930F93AAD481EF92E032DE1092BC
:100CB000DE021092DF021092E0021092E10281EF58
:100CC00092E0FEDC6093DE027093DF028093E0022C
:100CD0009093E1028EED92E09F938F938EE392E0EA
:100CE0009F938F930BEF12E01F930F93A7D48091E4
:100CF000E1028F938091E0028F938091DF028F93C6
:100D00008091DE028F9386E892E09F938F931F93EA
:100D10000F9374D4C801FDDD1092110310921203D9
:100D200010921303109214038BE193E09F938F931F
:100D3000FF92EF921F930F9381D40FB6F894DEBF0A
:100D40000FBECDBF80911C038F9380911B038F93A7
:100D50008BE992E09F938F931F930F934FD4C80119
:100D6000D8DD80911B0390911C0390931A0380930C
:100D700019031092490710924A0710924B071092DC
:100D80004C071092EC021092EB020F900F900F9014
:100D90000F900F900F907FC0E0915107F091520794
:100DA0008091550791E0980F90935507E80FF11D3A
:100DB0008081843609F44FC0D0F48035B1F188F4D5
:100DC000843409F068C02AE037ED43E25CE36091C7
:100DD000EE017091EF018091F0019091F101BBD093
:100DE00047C0823501F1863509F44BC054C08237C3
:100DF000D1F0A0F4853609F448C0803709F04BC023
:100E00002AE037ED43E25CE36091F2017091F30177
:100E10008091F4019091F5019DD014C0843799F12F
:100E2000863779F138C0B3D936C02AE037ED43E2CE
:100E30005CE36091F2017091F3018091F401909173
:100E4000F50189D06093F2017093F3018093F4016E
:100E50009093F50120C02AE037ED43E25CE3609116
:100E6000EE017091EF018091F0019091F10172D04B
:100E70006093EE017093EF018093F0019093F10184
:100E80000AC096DD08C09EDC06C081E090E0909329
:100E90001803809317038091550780935507A696F2
:100EA0000FB6F894DEBF0FBECDBFDF91CF91FF919B
:100EB000EF91BF91AF919F918F917F916F915F91D2
:100EC0004F913F912F911F910F91FF90EF900F90B5
:100ED0000FBE0F901F90189574D99CDC75D997D9C7
:100EE00081D948D9FFCF2F923F924F925F926F9254
:100EF0007F928F929F92AF92BF92CF92DF92EF92AA
:100F0000FF920F931F93CF93DF93CDB7DEB7CA1B2A
:100F1000DB0B0FB6F894DEBF0FBECDBF09942A8855
:100F2000398848885F846E847D848C849B84AA84FD
:100F3000B984C884DF80EE80FD800C811B81AA818A
:100F4000B981CE0FD11D0FB6F894DEBF0FBECDBF55
:100F5000ED0108955058BB27AA270ED0E5C0D6D082
:100F600030F0DBD020F031F49F3F11F41EF4CBC001
:100F70000EF4E095E7FBC1C0E92FE7D080F3BA1784
:100F8000620773078407950718F071F49EF5FFC098
:100F90000EF4E0950B2EBA2FA02D0B01B901900194
:100FA0000C01CA01A0011124FF27591B99F0593FD8
:100FB00050F4503E68F11A16F040A22F232F342F20
:100FC0004427585FF3CF469537952795A795F0406E
:100FD0005395C9F77EF41F16BA0B620B730B840B83
:100FE000BAF09150A1F0FF0FBB1F661F771F881F3B
:100FF000C2F70EC0BA0F621F731F841F48F4879593
:1010000077956795B795F7959E3F08F0B3CF939581
:10101000880F08F09927EE0F97958795089504D0CB
:101020006894B111B5C0089598D088F09F5790F09A
:10103000B92F9927B751A0F0D1F0660F771F881FFD
:10104000991F1AF0BA95C9F712C0B13081F09FD03C
:10105000B1E008959CC0672F782F8827B85F39F0DA
:10106000B93FCCF3869577956795B395D9F73EF45C
:1010700090958095709561957F4F8F4F9F4F089504
:10108000E89409C097FB3EF4909580957095619522
:101090007F4F8F4F9F4F9923A9F0F92F96E9BB27D8
:1010A0009395F695879577956795B795F111F8CF54
:1010B000FAF4BB0F11F460FF1BC06F5F7F4F8F4FBF
:1010C0009F4F16C0882311F096E911C0772321F0B5
:1010D0009EE8872F762F05C0662371F096E8862F4D
:1010E00070E060E02AF09A95660F771F881FDAF7A4
:1010F000880F9695879597F9089597F99F6780E8E7
:1011000070E060E008959FEF80EC089500240A9459
:101110001616170618060906089500240A941216D2
:101120001306140605060895092E0394000C11F405
:10113000882352F0BB0F40F4BF2B11F460FF04C0B2
:101140006F5F7F4F8F4F9F4F089557FD9058440F0B
:10115000551F59F05F3F71F04795880F97FB991F16
:1011600061F09F3F79F087950895121613061406D3
:10117000551FF2CF4695F1DF08C016161706180660
:10118000991FF1CF86957105610508940895E8943B
:10119000BB2766277727CB0197F908950BD0C4CFDB
:1011A000B5DF28F0BADF18F0952309F0A6CFABCF52
:1011B0001124EECFCADFA0F3959FD1F3950F50E035
:1011C000551F629FF001729FBB27F00DB11D639FF9
:1011D000AA27F00DB11DAA1F649F6627B00DA11D9F
:1011E000661F829F2227B00DA11D621F739FB00D45
:1011F000A11D621F839FA00D611D221F749F3327B5
:10120000A00D611D231F849F600D211D822F762F4D
:101210006A2F11249F5750408AF0E1F088234AF04A
:10122000EE0FFF1FBB1F661F771F881F9150504096
:10123000A9F79E3F510570F060CFAACF5F3FECF356
:10124000983EDCF3869577956795B795F795E79582
:101250009F5FC1F7FE2B880F911D9695879597F993
:101260000895FA01EE0FFF1F30962105310599F11F
:101270006115710561F48038BFE39B0749F16894FB
:101280009038810561F08038BFEF9B0741F09923CA
:1012900042F5FF3FE1053105210511F1E89408947D
:1012A000E795D901AA2329F4AB2FBE2FF85FD0F31D
:1012B00010C0FF5F70F4A695E0F7F73950F019F011
:1012C000FF3A38F49F779F930CD00F9007FC90580B
:1012D00008953EF018CF60E070E080E89FE3089545
:1012E0004FE79F775F934F933F932F939ED02F911C
:1012F0003F914F915F9152DF05C019F40EF0FDCE82
:1013000046CF01CF2ADFC8F39638C0F707F80F920F
:10131000E8942BE33AEA48EB5FE74EDF0F920F9237
:101320000F924DB75EB70F92C0D0ECEAF0E016D046
:101330004F915F91EF91FF91E595EE1FFF1F49F0EF
:10134000FE57E0684427EE0F441FFA95E1F74195F8
:10135000550B32D00F9007FE26C00895DF93CF9330
:101360001F930F93FF92EF92DF927B018C016894A1
:1013700005C0DA2EEF011EDFFE01E894A59125914C
:10138000359145915591AEF3EF01F6DDFE019701E0
:10139000A801DA9479F7DF90EF90FF900F911F91F9
:1013A000CF91DF9108959B01AC0160E070E080E88F
:1013B0009FE3AEC0A2CE14C1D0DEE8F39923D9F3E7
:1013C000940F511DBBF39150504094F059F0882375
:1013D00032F0660F771F881F91505040C1F79E3F33
:1013E000510544F7880F911D9695879597F90895B3
:1013F0005F3FACF0983E9CF0BB278695779567954C
:10140000B79508F4B1609395C1F7BB0F58F711F485
:1014100060FFE8CF6F5F7F4F8F4F9F4FE3CFB8CE16
:101420000EF0DEC070CE689468CE97DEC8F39923C4
:10143000D1F3C6F3DF93CF931F930F93FF92C92F7E
:10144000DD2788232AF02197660F771F881FDAF798
:1014500020E030E040E85FEB9FE3883920F0803EF9
:1014600030F021968F7777DDE4EDF0E003C073DD97
:10147000E1E0F1E073DF8B01BE01EC01FB2E6F5761
:1014800071097595771F880B990BFCDD28E132E710
:1014900041E35FE38FDEAF2D9801AE01FF900F9126
:1014A0001F91CF91DF9168DD3FCEFA01DC01AA0FD9
:1014B000BB1F9B01AC01BF5728F4222733274427C9
:1014C00050781FC0B75188F4AB2F0024469537954C
:1014D0002795011CA395D2F3002069F0220F331F3A
:1014E000441FB395DAF30DD035CD61307105A0E816
:1014F0008A07B94630F49B01AC0166277727882715
:101500009078309621F0208331834283538308956D
:101510000CD00ACE02DE40F0F9DD30F021F45F3F5E
:1015200019F0EBCD511134CEEECD0FDE98F39923A7
:10153000C9F35523B1F3951B550BBB27AA27621797
:101540007307840738F09F5F5F4F220F331F441FDC
:10155000AA1FA9F333D00E2E3AF0E0E830D0915014
:101560005040E695001CCAF729D0FE2F27D0660F01
:10157000771F881FBB1F261737074807AB07B0E840
:1015800009F0BB0B802DBF01FF2793585F4F2AF056
:101590009E3F510568F0B1CDFBCD5F3FECF3983E27
:1015A000DCF3869577956795B795F7959F5FC9F7B3
:1015B000880F911D9695879597F90895E1E0660F3C
:1015C000771F881FBB1F621773078407BA0720F0B5
:1015D000621B730B840BBA0BEE1F88F7E09508951E
:1015E0009F3F31F0915020F4879577956795B79597
:1015F000880F911D9695879597F90895AEE0B0E014
:10160000E3E0FBE07ECC0D891E8986E08C831A83A3
:1016100009838FEF9FE79E838D83AE01475E5F4F07
:101620006F89788DCE0101961FD02F813885F80102
:10163000E20FF31F10822E96E4E07FCCAEE0B0E024
:10164000E3E2FBE060CC85E08C838B899C899A8304
:101650008983AE01495E5F4F6D897E89CE01019617
:1016600035D32E96E2E06BCCACE0B0E0E9E3FBE0F2
:101670003ACC7C016B018A01FC01178216828381BE
:1016800081FFB0C1CE0101964C01F7019381F601B3
:1016900093FD859193FF81916F01882309F49EC189
:1016A000853239F493FD859193FF81916F018532E5
:1016B00021F4B70190E091D4E8CF512C312C20E0F7
:1016C0002032A0F48B3269F030F4803259F083324A
:1016D00069F420612CC08D3239F0803339F42160F7
:1016E00026C02260246023C0286021C027FD27C0B7
:1016F00030ED380F3A3078F426FF06C0FAE05F9EEE
:10170000300D1124532E13C08AE0389E300D112461
:10171000332E20620CC08E3221F426FD5FC120647E
:1017200006C08C3611F4206802C0883641F4F601F8
:1017300093FD859193FF81916F018111C1CF982F06
:101740009F7D9554933028F40C5F1F4FFFE3F9837E
:101750000DC0833631F0833771F0833509F057C0FF
:1017600021C0F801808189830E5F1F4F4424439478
:10177000512C540114C03801F2E06F0E711CF801B5
:10178000A080B18026FF03C0652D70E002C06FEF1E
:101790007FEFC5012C87D8D32C0183012C852F77AF
:1017A000222E16C03801F2E06F0E711CF801A080E5
:1017B000B18026FF03C0652D70E002C06FEF7FEFA0
:1017C000C5012C87B6D32C012C852068222E8301DD
:1017D00023FC19C0832D90E048165906A0F4B701E8
:1017E00080E290E0FAD33A94F5CFF50127FC859199
:1017F00027FE81915F01B70190E0EFD331103A9459
:10180000F1E04F1A51084114510479F7DEC08436D3
:1018100011F0893631F5F80127FF07C06081718129
:10182000828193810C5F1F4F08C060817181072EF8
:10183000000C880B990B0E5F1F4F2F76722E97FFAF
:1018400009C090958095709561957F4F8F4F9F4F00
:101850002068722E2AE030E0A40110D4A82EA81827
:1018600043C0853729F42F7EB22E2AE030E025C010
:10187000F22FF97FBF2E8F36C1F018F4883579F03A
:10188000ADC0803719F0883721F0A8C02F2F206114
:10189000B22EB4FE0DC08B2D8460B82E09C024FF7B
:1018A0000AC09F2F9660B92E06C028E030E005C020
:1018B00020E130E002C020E132E0F801B7FE07C0CD
:1018C00060817181828193810C5F1F4F06C06081AE
:1018D000718180E090E00E5F1F4FA401CFD3A82E4E
:1018E000A818FB2DFF777F2E76FE0BC0372D3E7F8D
:1018F000A51450F474FE0AC072FC08C0372D3E7E59
:1019000005C0BA2C372D03C0BA2C01C0B52C34FF4A
:101910000DC0FE01EA0DF11D8081803311F4397E86
:1019200009C032FF06C0B394B39404C0832F8678F5
:1019300009F0B39433FD12C030FF06C05A2CB31423
:1019400018F4530C5B18B32CB31460F4B70180E2A5
:1019500090E03C8742D3B3943C85F6CFB31410F4A7
:101960003B1801C0312C34FF11C0B70180E390E077
:101970003C8733D33C8532FF16C031FD03C088E776
:1019800090E002C088E590E0B7010CC0832F867814
:1019900051F031FF02C08BE201C080E237FD8DE2E1
:1019A000B70190E01AD3A51430F4B70180E390E0BA
:1019B00014D35A94F8CFAA94F401EA0DF11D808152
:1019C000B70190E00AD3A110F6CF332009F45DCE21
:1019D000B70180E290E001D33A94F7CFF701868116
:1019E000978102C08FEF9FEF2C96E2E198CA20FD0D
:1019F00009C0FC0123FD05C022FF02C0738362837E
:101A000051834083089544FD10C046FD10C0DB01A2
:101A1000FC01AA0FBB1FEE1FFF1F1094D1F76A0F26
:101A20007B1F8E1F9F1F31E003C033E001C034E0F5
:101A3000660F771F881F991F3150D1F7620F711DF4
:101A4000811D911D08950F931F93CF93DF938C01F8
:101A5000C80185D2EC0197FD06C058D2892BC1F789
:101A6000B801CE01F2D2CE01DF91CF911F910F913B
:101A70000895A1E0B0E0EEE3FDE03BCA8C01C62E84
:101A80007A0129836CD2AC01552729814B3251054B
:101A900021F04D32510561F42068CA94C11002C092
:101AA00080E06FC0C80129835AD2298197FDF8CF01
:101AB000322F3D7FD32E322F307339F5803329F505
:101AC000BB24BA94BC0C09F449C0C801298347D28D
:101AD000298197FD43C0382F3F7D383561F48D2D26
:101AE0008264D82ECA94CA94CC20C1F1C80137D2DE
:101AF00097FF0BC033C026FF04C02D2D2260D22ECD
:101B000003C03D2D3261D32ECB2C812C912C54015E
:101B100020ED280F283078F0D4FE03C0B80195D20C
:101B20001AC02A3040F0D6FEF9CF2F7D3FEE320F9B
:101B30003630A0F727504D2DC501B40164DF4B01AD
:101B40005C018D2D8260D82ECA94CC2051F0C80142
:101B500006D297FFDDCFD1FC04C0A2CF812C912CFF
:101B60005401D7FE08C0B094A09490948094811C36
:101B7000911CA11CB11C2D2DB501A401C70137DF9B
:101B800081E02196ECE0D1C9A1E2B0E0E9ECFDE012
:101B9000AEC95C017A01CE0101966C0180E2F601CA
:101BA00011928A95E9F7F501838040E050E0912C8D
:101BB000712C70E0A1E0B0E0F90183FC859183FE17
:101BC00081918F01982F9F01811103C080E090E0E7
:101BD0007AC08E3519F44115510549F1E72FF0E02F
:101BE000E417F5073CF48D3559F18D3219F477205F
:101BF00001F103C0711001C0982E892F869586953A
:101C000086958601080F111D892F87703D0101C03F
:101C1000660C8A95EAF7F8018081862980839915F8
:101C200059F0991510F49F5FE8CF9150E6CF71E01D
:101C300004C07724739401C0712C4F5F5F4FBCCFF9
:101C4000772019F08E8180628E83711103C09924F0
:101C5000939416C0F6019E012F5D3F4F80818095C1
:101C60008193E217F307D1F7F2CFE114F10429F0E1
:101C7000F7018083C70101967C016150912CE9F046
:101C8000C50169A36CD169A197FD15C0282F2695C0
:101C900026952695F601E20FF11D208130E0AC017A
:101CA0004770552702C0359527954A95E2F720FDE4
:101CB000DCCFB501CAD1911089CFE114F10411F044
:101CC000F7011082C801A196EEE02DC94F925F92F4
:101CD0007F928F929F92AF92BF92CF92DF92EF92BC
:101CE000FF920F931F93CF93DF931F92CDB7DEB771
:101CF0006C012B015A01FC0117821682712CF6012E
:101D0000F380F201F3FC8591F3FE8191382F2F01CE
:101D1000882309F4E5C090E03983F8D03981892B14
:101D200019F0C60190DEEBCF353241F4F201F3FC3D
:101D30003591F3FE31912F01353259F4C6013983C3
:101D40000ED1398197FDCAC03817C9F2B6017DD1CD
:101D5000C7C03A3239F4F3FC3591F3FE31912F01CB
:101D600051E001C050E0420110E020ED230F2A3085
:101D700088F45260612F70E080E090E040E2598387
:101D800042DE162FF401F3FC3591F3FE31914F0141
:101D90005981EBCF052F232F240151FF03C01111CF
:101DA00002C09EC01FEF383619F03C3659F011C002
:101DB000F401F3FC2591F3FE21912F01283649F41B
:101DC000052F08600460F201F3FC2591F3FE2191D8
:101DD0002F01222309F484C0622F70E08EE291E08B
:101DE00029839CD02981892B09F47AC000FD07C082
:101DF000F501E080F180C50102965C0102C0E12C92
:101E0000F12C2E3649F4F6014681578160E070E0EE
:101E1000202FC701ECDD73CF233689F401FF11E0D9
:101E2000C6019DD097FD5AC0E114F10429F0F701D5
:101E30008083C70101967C01115091F74BC02B356F
:101E400051F49201A701612FC6019EDE2C01892B5E
:101E500009F040C03AC0C6012983F5DD298197FD0C
:101E60003DC02F3641F128F4243619F1293631F1DD
:101E700024C0233769F02537E1F01FC0E114F104D5
:101E800029F0F7018082C70101967C01115059F0B9
:101E9000C60165D04C0197FD06C038D0892B71F37F
:101EA000B601C401D2D0E114F104A1F0F70110820F
:101EB00011C0006203C0006101C00064202FA701AF
:101EC000612FC601D6DD811105C0F60183818073C3
:101ED00029F406C000FD13CF739411CF772019F0B9
:101EE000872D90E002C08FEF9FEF0F90DF91CF9191
:101EF0001F910F91FF90EF90DF90CF90BF90AF9028
:101F00009F908F907F905F904F900895911114C192
:101F1000803219F089508550D0F70895FC01059062
:101F2000061621F00020D9F7C00108953197CF019E
:101F30000895FC010590615070400110D8F780951C
:101F400090958E0F9F1F0895FC0161507040019085
:101F50000110D8F7809590958E0F9F1F0895CF930D
:101F6000DF93EC012B8120FF33C026FF0AC02F7BBB
:101F70002B838E819F8101969F838E838A8190E03F
:101F800029C022FF0FC0E881F9818081082E000C52
:101F9000990B009719F420622B831AC03196F983AC
:101FA000E8830EC0EA85FB85099597FF09C02B8160
:101FB000019611F080E201C080E1822B8B8308C082
:101FC0002E813F812F5F3F4F3F832E83992702C091
:101FD0008FEF9FEFDF91CF9108950F931F93CF93D2
:101FE000DF93FB01238121FD03C08FEF9FEF28C00A
:101FF00022FF16C04681578124813581421753073D
:1020000044F4A081B1819D012F5F3F4F3183208334
:102010008C93268137812F5F3F4F3783268310C0F3
:10202000EB01092F182F0084F185E02D0995892BEC
:10203000E1F68E819F8101969F838E83812F902F61
:10204000DF91CF911F910F910895FB01238120FF14
:1020500012C026FD10C08F3F3FEF930761F08283CF
:102060002F7D2064238326813781215031093783D6
:102070002683992708958FEF9FEF0895FA01AA27E5
:10208000283051F1203181F1E8946F936E7F6E5FBB
:102090007F4F8F4F9F4FAF4FB1E03ED0B4E03CD069
:1020A000670F781F891F9A1FA11D680F791F8A1F4C
:1020B000911DA11D6A0F711D811D911DA11D20D0B3
:1020C00009F468943F912AE0269F11243019305D6D
:1020D0003193DEF6CF010895462F4770405D41935E
:1020E000B3E00FD0C9F7F6CF462F4F70405D4A33AB
:1020F00018F0495D31FD4052419302D0A9F7EACF73
:10210000B4E0A6959795879577956795BA95C9F7A1
:1021100000976105710508959B01AC010A2E069494
:102120005795479537952795BA95C9F7620F731F4D
:10213000841F951FA01D0895992788270895F89456
:02214000FFCFCF
:10214200506C656173652073656C65637420796F8B
:102152007572206D656E75206F7074696F6E0A0DF1
:10216200522F72203A20536574207468652072657C
:10217200666572656E636520706F736974696F6EF0
:102182000A0D503A20496E637265617365204B7087
:1021920020627920616E20616D6F756E742A0A0D5E
:1021A200703A204465637265617365204B702062EA
:1021B2007920616E20616D6F756E740A0D443A204C
:1021C200496E637265617365204B64206279206198
:1021D2006E20616D6F756E740A0D643A20446563FA
:1021E2007265617365204B6420627920616E2061A3
:1021F2006D6F756E740A0D562F763A2056696577A3
:10220200207468652063757272656E742076616CE5
:102212007565730A0D743A20457865637574652097
:102222007472616A6563746F72790A0D0A00CDCCAB
:102232004C3ECDCCCC3E53657420746865207265EB
:10224200666572656E63652076616C75652C2074B7
:1022520068656E20707265737320456E74657220B6
:102262000A0D00506D3A2025642050723A20256CE8
:10227200642000256400543A2025640D0A00256C70
:1022820064004B7020697320256C642F313030302C
:102292000D0A004B6420697320256C642F313030A5
:1022A200300D0A00507220697320256C640D0A00FB
:1022B200506D20697320256C640D0A0054206973E7
:1022C2002025640D0A0052656665725F56616C7561
:1022D2006520697320256C640D0A004C61737420BB
:1022E200436F756E74284D6561737572656429203C
:1022F20069732025640D0A000D0A46696E697368C8
:10230200656420656E746572696E672072656665C4
:0E23120072656E636520636F756E743A20000D
:00000001FF
